{
  "_format": "hh-sol-artifact-1",
  "contractName": "PensionSystem",
  "sourceName": "contracts/PensionSystem.sol",
  "abi": [
    {
      "inputs": [],
      "stateMutability": "nonpayable",
      "type": "constructor"
    },
    {
      "anonymous": false,
      "inputs": [
        {
          "indexed": true,
          "internalType": "address",
          "name": "pensioner",
          "type": "address"
        },
        {
          "indexed": false,
          "internalType": "uint256",
          "name": "amount",
          "type": "uint256"
        }
      ],
      "name": "PensionContribution",
      "type": "event"
    },
    {
      "anonymous": false,
      "inputs": [
        {
          "indexed": true,
          "internalType": "address",
          "name": "pensioner",
          "type": "address"
        },
        {
          "indexed": false,
          "internalType": "uint256",
          "name": "amount",
          "type": "uint256"
        }
      ],
      "name": "PensionWithdrawn",
      "type": "event"
    },
    {
      "inputs": [],
      "name": "admin",
      "outputs": [
        {
          "internalType": "address",
          "name": "",
          "type": "address"
        }
      ],
      "stateMutability": "view",
      "type": "function"
    },
    {
      "inputs": [],
      "name": "contributeToPension",
      "outputs": [],
      "stateMutability": "payable",
      "type": "function"
    },
    {
      "inputs": [],
      "name": "payoutInterval",
      "outputs": [
        {
          "internalType": "uint256",
          "name": "",
          "type": "uint256"
        }
      ],
      "stateMutability": "view",
      "type": "function"
    },
    {
      "inputs": [
        {
          "internalType": "address",
          "name": "",
          "type": "address"
        }
      ],
      "name": "pensioners",
      "outputs": [
        {
          "internalType": "address",
          "name": "pensionerAddress",
          "type": "address"
        },
        {
          "internalType": "uint256",
          "name": "totalContributions",
          "type": "uint256"
        },
        {
          "internalType": "uint256",
          "name": "lastWithdrawTime",
          "type": "uint256"
        },
        {
          "internalType": "bool",
          "name": "isRetired",
          "type": "bool"
        }
      ],
      "stateMutability": "view",
      "type": "function"
    },
    {
      "inputs": [],
      "name": "retire",
      "outputs": [],
      "stateMutability": "nonpayable",
      "type": "function"
    },
    {
      "inputs": [],
      "name": "retirementAge",
      "outputs": [
        {
          "internalType": "uint256",
          "name": "",
          "type": "uint256"
        }
      ],
      "stateMutability": "view",
      "type": "function"
    },
    {
      "inputs": [
        {
          "internalType": "uint256",
          "name": "amount",
          "type": "uint256"
        }
      ],
      "name": "withdrawPension",
      "outputs": [],
      "stateMutability": "nonpayable",
      "type": "function"
    }
  ],
  "bytecode": "0x6080604052603c60025562278d0060035534801561001c57600080fd5b5033600160006101000a81548173ffffffffffffffffffffffffffffffffffffffff021916908373ffffffffffffffffffffffffffffffffffffffff160217905550610b7a8061006d6000396000f3fe6080604052600436106100705760003560e01c8063ba18e7621161004e578063ba18e762146100f7578063c2f6520c14610122578063cea89beb1461014b578063f851a4401461015557610070565b806309e785e114610075578063308f5db7146100a0578063a4874d77146100e0575b600080fd5b34801561008157600080fd5b5061008a610180565b60405161009791906106cc565b60405180910390f35b3480156100ac57600080fd5b506100c760048036038101906100c2919061074a565b610186565b6040516100d794939291906107a1565b60405180910390f35b3480156100ec57600080fd5b506100f56101e3565b005b34801561010357600080fd5b5061010c6102c3565b60405161011991906106cc565b60405180910390f35b34801561012e57600080fd5b5061014960048036038101906101449190610812565b6102c9565b005b6101536105a2565b005b34801561016157600080fd5b5061016a61068d565b604051610177919061083f565b60405180910390f35b60035481565b60006020528060005260406000206000915090508060000160009054906101000a900473ffffffffffffffffffffffffffffffffffffffff16908060010154908060020154908060030160009054906101000a900460ff16905084565b60008060003373ffffffffffffffffffffffffffffffffffffffff1673ffffffffffffffffffffffffffffffffffffffff1681526020019081526020016000206001015411610267576040517f08c379a000000000000000000000000000000000000000000000000000000000815260040161025e906108b7565b60405180910390fd5b60016000803373ffffffffffffffffffffffffffffffffffffffff1673ffffffffffffffffffffffffffffffffffffffff16815260200190815260200160002060030160006101000a81548160ff021916908315150217905550565b60025481565b6000803373ffffffffffffffffffffffffffffffffffffffff1673ffffffffffffffffffffffffffffffffffffffff16815260200190815260200160002060030160009054906101000a900460ff16610357576040517f08c379a000000000000000000000000000000000000000000000000000000000815260040161034e90610923565b60405180910390fd5b6003546000803373ffffffffffffffffffffffffffffffffffffffff1673ffffffffffffffffffffffffffffffffffffffff168152602001908152602001600020600201546103a69190610972565b4210156103e8576040517f08c379a00000000000000000000000000000000000000000000000000000000081526004016103df906109f2565b60405180910390fd5b6000803373ffffffffffffffffffffffffffffffffffffffff1673ffffffffffffffffffffffffffffffffffffffff1681526020019081526020016000206001015481111561046c576040517f08c379a000000000000000000000000000000000000000000000000000000000815260040161046390610a5e565b60405180910390fd5b806000803373ffffffffffffffffffffffffffffffffffffffff1673ffffffffffffffffffffffffffffffffffffffff16815260200190815260200160002060010160008282546104bd9190610a7e565b92505081905550426000803373ffffffffffffffffffffffffffffffffffffffff1673ffffffffffffffffffffffffffffffffffffffff168152602001908152602001600020600201819055503373ffffffffffffffffffffffffffffffffffffffff166108fc829081150290604051600060405180830381858888f19350505050158015610550573d6000803e3d6000fd5b503373ffffffffffffffffffffffffffffffffffffffff167f839059514d25e135b11ffde3d8e4115f8a558a376514c00c93435b2252d518788260405161059791906106cc565b60405180910390a250565b600034116105e5576040517f08c379a00000000000000000000000000000000000000000000000000000000081526004016105dc90610b24565b60405180910390fd5b346000803373ffffffffffffffffffffffffffffffffffffffff1673ffffffffffffffffffffffffffffffffffffffff16815260200190815260200160002060010160008282546106369190610972565b925050819055503373ffffffffffffffffffffffffffffffffffffffff167fc9e83af8bab9bfda10ae3716a25433c6a87f9293f56f363dad00dc66bb18581c3460405161068391906106cc565b60405180910390a2565b600160009054906101000a900473ffffffffffffffffffffffffffffffffffffffff1681565b6000819050919050565b6106c6816106b3565b82525050565b60006020820190506106e160008301846106bd565b92915050565b600080fd5b600073ffffffffffffffffffffffffffffffffffffffff82169050919050565b6000610717826106ec565b9050919050565b6107278161070c565b811461073257600080fd5b50565b6000813590506107448161071e565b92915050565b6000602082840312156107605761075f6106e7565b5b600061076e84828501610735565b91505092915050565b6107808161070c565b82525050565b60008115159050919050565b61079b81610786565b82525050565b60006080820190506107b66000830187610777565b6107c360208301866106bd565b6107d060408301856106bd565b6107dd6060830184610792565b95945050505050565b6107ef816106b3565b81146107fa57600080fd5b50565b60008135905061080c816107e6565b92915050565b600060208284031215610828576108276106e7565b5b6000610836848285016107fd565b91505092915050565b60006020820190506108546000830184610777565b92915050565b600082825260208201905092915050565b7f4e6f20636f6e747269627574696f6e7320666f756e6400000000000000000000600082015250565b60006108a160168361085a565b91506108ac8261086b565b602082019050919050565b600060208201905081810360008301526108d081610894565b9050919050565b7f4e6f7420656c696769626c6520666f72207769746864726177616c0000000000600082015250565b600061090d601b8361085a565b9150610918826108d7565b602082019050919050565b6000602082019050818103600083015261093c81610900565b9050919050565b7f4e487b7100000000000000000000000000000000000000000000000000000000600052601160045260246000fd5b600061097d826106b3565b9150610988836106b3565b92508282019050808211156109a05761099f610943565b5b92915050565b7f5769746864726177616c206e6f742079657420616c6c6f776564000000000000600082015250565b60006109dc601a8361085a565b91506109e7826109a6565b602082019050919050565b60006020820190508181036000830152610a0b816109cf565b9050919050565b7f496e73756666696369656e742062616c616e6365000000000000000000000000600082015250565b6000610a4860148361085a565b9150610a5382610a12565b602082019050919050565b60006020820190508181036000830152610a7781610a3b565b9050919050565b6000610a89826106b3565b9150610a94836106b3565b9250828203905081811115610aac57610aab610943565b5b92915050565b7f436f6e747269627574696f6e206d75737420626520677265617465722074686160008201527f6e207a65726f0000000000000000000000000000000000000000000000000000602082015250565b6000610b0e60268361085a565b9150610b1982610ab2565b604082019050919050565b60006020820190508181036000830152610b3d81610b01565b905091905056fea2646970667358221220a68554d7c28561367731247afe5a61aa07dc049560afb6539f79b8a96c5d775e64736f6c63430008140033",
  "linkReferences": {},
  "deployedLinkReferences": {}
}